000000000                                                                                7301                                                         
101010100QUANG TRI           HAI LANG            HAI-AN                                  EEEED000182000000000000000182101010103                       
101010101QUANG TRI           HAI LANG            HAI-AN              TAN-AN              NNNNN000000000000000         101000000YD4665849NN            
101010102QUANG TRI           HAI LANG            HAI-AN              MY-THUY             NNNNN000000000000000         101000000YD4665839NN            
101010103QUANG TRI           HAI LANG            HAI-AN              THUAN-DAU           NNNNN000000000000000         101000000YD4665859NN            
101010200QUANG TRI           HAI LANG            HAI-BA                                  EEEED000053000000000000000053101010201                       
101010201QUANG TRI           HAI LANG            HAI-BA              BA DU               NNNNN000000000000000         101000000YD4485409NN            
101010202QUANG TRI           HAI LANG            HAI-BA              CO-LUY              NNNNN000000000000000         101000000YD4545359NN            
101010203QUANG TRI           HAI LANG            HAI-BA              DA-NGHI             NNNNN000000000000000         101000000YD4585299NN            
101010204QUANG TRI           HAI LANG            HAI-BA              PHUONG LA DONG      NNNNN000000000000000         101000000YD4425479NN            
101010205QUANG TRI           HAI LANG            HAI-BA              PHUONG LANG TAY     NNNNN000000000000000         101000000YD4365539NN            
101010206QUANG TRI           HAI LANG            HAI-BA              PHU-HAI             NNNNN000000000000000         101000000YD4205539NN            
101010300QUANG TRI           HAI LANG            HAI-CHANH                               EEEED000036000000000000000036101010303                       
101010301QUANG TRI           HAI LANG            HAI-CHANH           HOI-KY              NNNNN000000000000000         101000000YD4714019NN            
101010302QUANG TRI           HAI LANG            HAI-CHANH           VAN-PHONG           NNNNN000000000000000         101000000YD4803849NN            
101010303QUANG TRI           HAI LANG            HAI-CHANH           MY-CHANH            NNNNN000000000000000         101000000YD4644019NN            
101010304QUANG TRI           HAI LANG            HAI-CHANH           TAN-LUONG           NNNNN000000000000000         101000000YD4643969NN            
101010305QUANG TRI           HAI LANG            HAI-CHANH           XUAN-LOC            NNNNN000000000000000         101000000YD4573949NN            
101010306QUANG TRI           HAI LANG            HAI-CHANH           VUC-KE              NNNNN000000000000000         101000000YD4643969NN            
101010307QUANG TRI           HAI LANG            HAI-CHANH           TRUNG-CHANH         NNNNN000000000000000         101000000YD4683889NN            
101010311QUANG TRI           HAI LANG            HAI-CHANH           TAN VAN HIEP        NNNNN000000000000000         101000000YD4644049NN            
101010400QUANG TRI           HAI LANG            HAI-DUONG                               EEEED000030000000000000000030101010401                       
101010401QUANG TRI           HAI LANG            HAI-DUONG           DONG-DUONG          NNNNN000000000000000         101000000YD5084939NN            
101010402QUANG TRI           HAI LANG            HAI-DUONG           DIEN-KHANH          NNNNN000000000000000         101000000YD4925039NN            
101010403QUANG TRI           HAI LANG            HAI-DUONG           AN-NHON             NNNNN000000000000000         101000000YD5114949NN            
101010404QUANG TRI           HAI LANG            HAI-DUONG           XUAN-VIEN           NNNNN000000000000000         101000000YD5164929NN            
101010405QUANG TRI           HAI LANG            HAI-DUONG           KIM-GIAO            NNNNN000000000000000         101000000YD4865089NN            
101010500QUANG TRI           HAI LANG            HAI-KINH                                EEEED000022000000000000000022101010501                       
101010501QUANG TRI           HAI LANG            HAI-KINH            HUNG-NHON           NNNNN000000000000000         101000000YD4854459NN            
101010502QUANG TRI           HAI LANG            HAI-KINH            AN THO              NNNNN000000000000000         101000000YD1155859NN            
101010503QUANG TRI           HAI LANG            HAI-KINH            PHU-KINH            NNNNN000000000000000         101000000YD4974589NN            
101010504QUANG TRI           HAI LANG            HAI-KINH            HOI-DIEN            NNNNN000000000000000         101000000YD4754699NN            
101010700QUANG TRI           HAI LANG            HAI-LAM                                 EEEED000027000000000000000027101010701                       
101010701QUANG TRI           HAI LANG            HAI-LAM             MAI-DAN             NNNNN000000000000000         101000000YD3894729NN            
101010702QUANG TRI           HAI LANG            HAI-LAM             TRUONG-PHUOC        NNNNN000000000000000         101000000YD3944679NN            
101010703QUANG TRI           HAI LANG            HAI-LAM             XUAN-LAM            NNNNN000000000000000         101000000YD3934689NN            
101010704QUANG TRI           HAI LANG            HAI-LAM             THUONG-NGUYEN       NNNNN000000000000000         101000000YD3934689NN            
101010705QUANG TRI           HAI LANG            HAI-LAM             TAN-CHANH           NNNNN000000000000000         101000000YD3934689NN            
101010800QUANG TRI           HAI LANG            HAI-NHI                                 EEEED000011000000000000000011101010801                       
101010801QUANG TRI           HAI LANG            HAI-NHI             CAU-NHI             NNNNN000000000000000         101000000YD4754249NN            
101010802QUANG TRI           HAI LANG            HAI-NHI             HA-LO               NNNNN000000000000000         101000000YD4674269NN            
101010803QUANG TRI           HAI LANG            HAI-NHI             CAU-NHI-PHUONG      NNNNN000000000000000         101000000YD4773749NN            
101010900QUANG TRI           HAI LANG            HAI-QUE                                 EEEED000022000000000000000022101010902                       
101010901QUANG TRI           HAI LANG            HAI-QUE             HOI-YEN             NNNNN000000000000000         101000000YD4555129NN            
101010902QUANG TRI           HAI LANG            HAI-QUE             DON-QUE             NNNNN000000000000000         101000000YD4735239NN            
101010903QUANG TRI           HAI LANG            HAI-QUE             KIM-LONG            NNNNN000000000000000         101000000YD4815119NN            
101011000QUANG TRI           HAI LANG            HAI-SON                                 EEEED000017000000000000000017101011002                       
101011001QUANG TRI           HAI LANG            HAI-SON             TAN-DIEN            NNNNN000000000000000         101000000YD4624049NN            
101011002QUANG TRI           HAI LANG            HAI-SON             LUONG-DIEN          NNNNN000000000000000         101000000YD4644109NN            
101011003QUANG TRI           HAI LANG            HAI-SON             HA-LOC              NNNNN000000000000000         101000000YD4664239NN            
101011004QUANG TRI           HAI LANG            HAI-SON             NHU-SON             NNNNN000000000000000         101000000YD4454159NN            
101011005QUANG TRI           HAI LANG            HAI-SON             TAN-TRUONG          NNNNN000000000000000         101000000YD4504209NN            
101011006QUANG TRI           HAI LANG            HAI-SON             LUONG DIEN          NNNNN000000000000000         101000000YD4534069NN            
101011200QUANG TRI           HAI LANG            HAI-THO                                 EEEED000021000000000000000021101011201                       
101011201QUANG TRI           HAI LANG            HAI-THO             DIEN-SANH           NNNNN000000000000000         101000000YD4204809NN            
101011202QUANG TRI           HAI LANG            HAI-THO             DIEN-TRUONG         NNNNN000000000000000         101000000YD4484669NN            
101011203QUANG TRI           HAI LANG            HAI-THO             TAN-DIEN            NNNNN000000000000000         101000000YD4194839NN            
101011300QUANG TRI           HAI LANG            HAI-THIEN                               EEEED000035000000000000000035101011301                       
101011301QUANG TRI           HAI LANG            HAI-THIEN           CU-HOAN             NNNNN000000000000000         101000000YD4284919NN            
101011400QUANG TRI           HAI LANG            HAI-TRUONG                              EEEED000024000000000000000024101011403                       
101011401QUANG TRI           HAI LANG            HAI-TRUONG          GIAP-HAU            NNNNN000000000000000         101000000YD4304509NN            
101011402QUANG TRI           HAI LANG            HAI-TRUONG          GIAP-MY             NNNNN000000000000000         101000000YD4344349NN            
101011403QUANG TRI           HAI LANG            HAI-TRUONG          GIAP-TRUNG          NNNNN000000000000000         101000000YD4404329NN            
101011404QUANG TRI           HAI LANG            HAI-TRUONG          GIAP DONG           NNNNN000000000000000         101000000YD4564399NN            
101011405QUANG TRI           HAI LANG            HAI-TRUONG          TRUONG-XUAN         NNNNN000000000000000         101000000YD4354289NN            
101011406QUANG TRI           HAI LANG            HAI-TRUONG          TRUONG-THO          NNNNN000000000000000         101000000YD4374309NN            
101011407QUANG TRI           HAI LANG            HAI-TRUONG          TRUONG-VINH         NNNNN000000000000000         101000000YD4344279NN            
101011500QUANG TRI           HAI LANG            HAI-VAN                                 EEEED000005000000000000000005101011502                       
101011501QUANG TRI           HAI LANG            HAI-VAN             VAN-TRI             NNNNN000000000000000         101000000YD4604489NN            
101011502QUANG TRI           HAI LANG            HAI-VAN             VAN-QUY             NNNNN000000000000000         101000000YD4834389NN            
101011600QUANG TRI           HAI LANG            HAI-VINH                                EEEED000021000000000000000021101011605                       
101011601QUANG TRI           HAI LANG            HAI-VINH            LUONG-CHANH         NNNNN000000000000000         101000000YD4355209NN            
101011602QUANG TRI           HAI LANG            HAI-VINH            THUONG-AN           NNNNN000000000000000         101000000YD4405209NN            
101011603QUANG TRI           HAI LANG            HAI-VINH            THUAN-NHON          NNNNN000000000000000         101000000YD4435109NN            
101011604QUANG TRI           HAI LANG            HAI-VINH            THUAN-DUC           NNNNN000000000000000         101000000YD4435109NN            
101011605QUANG TRI           HAI LANG            HAI-VINH            THI-ONG             NNNNN000000000000000         101000000YD4305259NN            
101011606QUANG TRI           HAI LANG            HAI-VINH            LAM-THUY            NNNNN000000000000000         101000000YD4225329NN            
101011700QUANG TRI           HAI LANG            HAI-XUAN                                EEEED000027000000000000000027101011703                       
101011701QUANG TRI           HAI LANG            HAI-XUAN            PHU-XUAN            NNNNN000000000000000         101000000YD3995419NN            
101011702QUANG TRI           HAI LANG            HAI-XUAN            TRA-TRI             NNNNN000000000000000         101000000YD3905409NN            
101011703QUANG TRI           HAI LANG            HAI-XUAN            TRA-LOC             NNNNN000000000000000         101000000YD3905389NN            
101011704QUANG TRI           HAI LANG            HAI-XUAN            DUAN KINH           NNNNN000000000000000         101000000YD4085389NN            
101011705QUANG TRI           HAI LANG            HAI-XUAN            LA-DUY              NNNNN000000000000000         101000000YD4065449NN            
101011800QUANG TRI           HAI LANG            HAI THANH                               EEEED000012000000000000000012101011803                       
101011801QUANG TRI           HAI LANG            HAI THANH           PHUOC DIEN          NNNNN000000000000000         101000000YD4534739NN            
101011802QUANG TRI           HAI LANG            HAI THANH           KIM SANH            NNNNN000000000000000         101000000YD4624929NN            
101011803QUANG TRI           HAI LANG            HAI THANH           TRUNG DON           NNNNN000000000000000         101000000YD4554939NN            
101012000QUANG TRI           HAI LANG            HAI KHE                                 EEEED000021000000000000000021101012000                       
101012001QUANG TRI           HAI LANG            HAI KHE             TRUNG AN            NNNNN000000000000000         101000000YD5205359NN            
101012002QUANG TRI           HAI LANG            HAI KHE             THAM KHE            NNNNN000000000000000         101000000YD5255309NN            
101012100QUANG TRI           HAI LANG            HAI-AN (B)                              NNNNN000000000000000000000000101012100                       
101012200QUANG TRI           HAI LANG            HAI-BA (B)                              NNNNN000000000000000000000000101012200                       
101012300QUANG TRI           HAI LANG            HAI-CHANH (B)                           NNNNN000000000000000000000000101012300                       
101012400QUANG TRI           HAI LANG            HAI-DUONG (B)                           NNNNN000000000000000000000000101012400                       
101012500QUANG TRI           HAI LANG            HAI-KINH (B)                            NNNNN000000000000000000000000101012500                       
101012600QUANG TRI           HAI LANG            HAI-LAM (B)                             NNNNN000000000000000000000000101012600                       
101012700QUANG TRI           HAI LANG            HAI-NHI (B)                             NNNNN000000000000000000000000101012700                       
101012800QUANG TRI           HAI LANG            HAI-QUE (B)                             NNNNN000000000000000000000000101012800                       
101012900QUANG TRI           HAI LANG            HAI-SON (B)                             NNNNN000000000000000000000000101012900                       
101013000QUANG TRI           HAI LANG            HAI-THO (B)                             NNNNN000000000000000000000000101013000                       
101013100QUANG TRI           HAI LANG            HAI-THIEN (B)                           NNNNN000000000000000000000000101013100                       
101013200QUANG TRI           HAI LANG            HAI-TRUONG (B)                          NNNNN000000000000000000000000101013200                       
101013300QUANG TRI           HAI LANG            HAI-VAN (B)                             NNNNN000000000000000000000000101013300                       
101013400QUANG TRI           HAI LANG            HAI VINH (B)                            NNNNN000000000000000000000000101013400                       
101013500QUANG TRI           HAI LANG            HAI-XUAN (B)                            NNNNN000000000000000000000000101013500                       
101013600QUANG TRI           HAI LANG            HAI-THANH (B)                           NNNNN000000000000000000000000101013600                       
101013700QUANG TRI           HAI LANG            HAI-KHE (B)                             NNNNN000000000000000000000000101013700                       
101020100QUANG TRI           MAI LINH            HAI-LE                                  EENND000050000000000000000050101020101                       
101020101QUANG TRI           MAI LINH            HAI-LE              TICH-TUONG          NNNNN000000000000000         101000000YD3194939NN            
101020102QUANG TRI           MAI LINH            HAI-LE              NHU-LE              NNNNN000000000000000         101000000YD3134799NN            
101020103QUANG TRI           MAI LINH            HAI-LE              TAN-LE              NNNNN000000000000000         101000000YD3004709NN            
101020104QUANG TRI           MAI LINH            HAI-LE              THON TAN MY         NNNNN000000000000000         101000000YD3014759NN            
101020105QUANG TRI           MAI LINH            HAI-LE              THON DA DUNG        NNNNN000000000000000         101000000YD2954649NN            
101020200QUANG TRI           MAI LINH            HAI-PHU                                 EENND000035000000000000000035101020203                       
101020201QUANG TRI           MAI LINH            HAI-PHU             PHU-LONG            NNNNN000000000000000         101000000YD3404819NN            
101020202QUANG TRI           MAI LINH            HAI-PHU             LONG HUNG PHUONG    NNNNN000000000000000         101000000YD3514869NN            
101020203QUANG TRI           MAI LINH            HAI-PHU             LA-VANG-CHINH       NNNNN000000000000000         101000000YD3444809NN            
101020204QUANG TRI           MAI LINH            HAI-PHU             LA-VANG-TRUNG       NNNNN000000000000000         101000000YD3445049NN            
101020205QUANG TRI           MAI LINH            HAI-PHU             LA-VANG-TA          NNNNN000000000000000         101000000YD3484969NN            
101020206QUANG TRI           MAI LINH            HAI-PHU             LA-VANG-HUU         NNNNN000000000000000         101000000YD3414979NN            
101020207QUANG TRI           MAI LINH            HAI-PHU             LA-VANG-THUONG      NNNNN000000000000000         101000000YD3584919NN            
101020208QUANG TRI           MAI LINH            HAI-PHU             PHUOC MON           NNNNN000000000000000         101000000YD3434929NN            
101020300QUANG TRI           MAI LINH            HAI-QUY                                 EENND000015000000000000000015101020302                       
101020301QUANG TRI           MAI LINH            HAI-QUY             TRAM-LY             NNNNN000000000000000         101000000YD3665349NN            
101020302QUANG TRI           MAI LINH            HAI-QUY             VAN-VAN             NNNNN000000000000000         101000000YD3745449NN            
101020303QUANG TRI           MAI LINH            HAI-QUY             QUY-THIEN           NNNNN000000000000000         101000000YD3585369NN            
101020400QUANG TRI           MAI LINH            HAI-THUONG                              EENND000030000000000000000030101020403                       
101020401QUANG TRI           MAI LINH            HAI-THUONG          THUONG-XA           NNNNN000000000000000         101000000YD3765019NN            
101020402QUANG TRI           MAI LINH            HAI-THUONG          AN-THAI             NNNNN000000000000000         101000000YD3635109NN            
101020403QUANG TRI           MAI LINH            HAI-THUONG          LONG-HUNG           NNNNN000000000000000         101000000YD3575189NN            
101020404QUANG TRI           MAI LINH            HAI-THUONG          DAI-NAI             NNNNN000000000000000         101000000YD3635179NN            
101020405QUANG TRI           MAI LINH            HAI-THUONG          BA-KHE              NNNNN000000000000000         101000000YD3735189NN            
101020406QUANG TRI           MAI LINH            HAI-THUONG          HAI CHANH           NNNNN000000000000000         101000000YD3455069NN            
101020500QUANG TRI           MAI LINH            HAI-TRI                                 EENND000015000000000000000015101020502                       
101020501QUANG TRI           MAI LINH            HAI-TRI             TRI-BUU             NNNNN000000000000000         101000000YD3465369NN            
101020502QUANG TRI           MAI LINH            HAI-TRI             THACH-HAN           NNNNN000000000000000         101000000YD3335229NN            
101020503QUANG TRI           MAI LINH            HAI-TRI             THACH MON           NNNNN000000000000000         101000000YD3445029NN            
101020600QUANG TRI           MAI LINH            QUANG-TRI                               EENND000035000000000000000035101020603                       
101020601QUANG TRI           MAI LINH            QUANG-TRI           THON DE-NHAT        NNNNN000000000000000         101000000YD3395369NN            
101020602QUANG TRI           MAI LINH            QUANG-TRI           THON DE NHI         NNNNN000000000000000         101000000YD3345289NN            
101020603QUANG TRI           MAI LINH            QUANG-TRI           THON DE TAM         NNNNN000000000000000         101000000YD3365319NN            
101020604QUANG TRI           MAI LINH            QUANG-TRI           THON DE TU          NNNNN000000000000000         101000000YD3425359NN            
101020605QUANG TRI           MAI LINH            QUANG-TRI           THON DE-NGU         NNNNN000000000000000         101000000YD3335199NN            
101020606QUANG TRI           MAI LINH            QUANG-TRI           VAN CU-XUAN         NNNNN000000000000000         101000000YD3335299NN            
101020607QUANG TRI           MAI LINH            QUANG-TRI           VAN AN-THANH        NNNNN000000000000000         101000000YD3335269NN            
101020700QUANG TRI           MAI LINH            TRIEU-THUONG                            VENEE000416000416000000000000101020702                       
101020701QUANG TRI           MAI LINH            TRIEU-THUONG        THUONG-PHUOC        VENEE000580005800000         101020000YD3285239ED            
101020702QUANG TRI           MAI LINH            TRIEU-THUONG        AN-DON              VENEE000200002000000         101020000YD3275139ED            
101020703QUANG TRI           MAI LINH            TRIEU-THUONG        NHAN BIEU           VENEE002400024000000         101020000YD3205299ED            
101020704QUANG TRI           MAI LINH            TRIEU-THUONG        XUAN AN             VENEE000250002500000         101020000YD3335499ED            
101020705QUANG TRI           MAI LINH            TRIEU-THUONG        TRUNG KIEN          VENEE000600006000000         101020000YD3285539ED            
101020706QUANG TRI           MAI LINH            TRIEU-THUONG        MINH HUONG          VENEE000050000500000         101020000YD3285589ED            
101020707QUANG TRI           MAI LINH            TRIEU-THUONG        TA HUU              VENEE000080000800000         101020000YD3265489ED            
101020800QUANG TRI           MAI LINH            HAI-LE (B)                              NNNNN000000000000000000000000101020800                       
101020900QUANG TRI           MAI LINH            HAI-PHU (B)                             NNNNN000000000000000000000000101020900                       
101021000QUANG TRI           MAI LINH            HAI-QUY (B)                             NNNNN000000000000000000000000101021000                       
101021100QUANG TRI           MAI LINH            HAI-THUONG (B)                          NNNNN000000000000000000000000101021100                       
101021200QUANG TRI           MAI LINH            HAI-TRI (B)                             NNNNN000000000000000000000000101021200                       
101021300QUANG TRI           MAI LINH            QUANG-TRI (B)                           NNNNN000000000000000000000000101021300                       
101021400QUANG TRI           MAI LINH            TRIEU-THUONG (B)                        NNNNN000000000000000000000000101021400                       
101030100QUANG TRI           TRIEU PHONG         TRIEU-AI                                VENEE000180000180000000000000101030101                       
101030101QUANG TRI           TRIEU PHONG         TRIEU-AI            HA-XA               VENEE000180001800000         101030000YD2755759ED            
101030102QUANG TRI           TRIEU PHONG         TRIEU-AI            AI-TU               VENEE000240002400000         101030000YD3035679ED            
101030103QUANG TRI           TRIEU PHONG         TRIEU-AI            TAN-PHO             VENEE000190001900000         101030000YD2785779ED            
101030104QUANG TRI           TRIEU PHONG         TRIEU-AI            LAI-PHUOC           VENEE000620006200000         101030000YD2735779ED            
101030105QUANG TRI           TRIEU PHONG         TRIEU-AI            XUAN-KHE            VENEE000080000800000         101030000YD2785779ED            
101030106QUANG TRI           TRIEU PHONG         TRIEU-AI            KIEN-PHUOC          VENEE000070000700000         101030000YD2785779ED            
101030107QUANG TRI           TRIEU PHONG         TRIEU-AI            NAI CUU-PHUONG      VENEE000110001100000         101030000YD2745789ED            
101030108QUANG TRI           TRIEU PHONG         TRIEU-AI            KIEN-MY             VENEE000080000800000         101030000YD2995779ED            
101030109QUANG TRI           TRIEU PHONG         TRIEU-AI            TAN-VINH            VENEE000100001000000         101030000YD2745789ED            
101030110QUANG TRI           TRIEU PHONG         TRIEU-AI            VAN LAI-PHUOC       VENEE000130001300000         101030000YD2915919ED            
101030200QUANG TRI           TRIEU PHONG         TRIEU-DAI                               EENNE000387000000000000000387101030205                       
101030201QUANG TRI           TRIEU PHONG         TRIEU-DAI           QUANG-DIEN          NNNNN000000000000000         101000000YD3236159NN            
101030202QUANG TRI           TRIEU PHONG         TRIEU-DAI           DAI-HAO             NNNNN000000000000000         101000000YD3306009NN            
101030203QUANG TRI           TRIEU PHONG         TRIEU-DAI           PHU-TAI             NNNNN000000000000000         101000000YD3006259NN            
101030204QUANG TRI           TRIEU PHONG         TRIEU-DAI           QUANG-LUONG         NNNNN000000000000000         101000000YD3306089NN            
101030205QUANG TRI           TRIEU PHONG         TRIEU-DAI           DAI-HOA             NNNNN000000000000000         101000000YD3196059NN            
101030206QUANG TRI           TRIEU PHONG         TRIEU-DAI           HIEN-LUONG          NNNNN000000000000000         101000000YD3106189NN            
101030207QUANG TRI           TRIEU PHONG         TRIEU-DAI           PHAN-XA             NNNNN000000000000000         101000000YD2936279NN            
101030300QUANG TRI           TRIEU PHONG         TRIEU-DO                                VENEE000589000589000000000000101030301                       
101030301QUANG TRI           TRIEU PHONG         TRIEU-DO            GIA-DO              VENEE001120011200000         101030000YD2756359ED            
101030302QUANG TRI           TRIEU PHONG         TRIEU-DO            GIAO-LIEM           VENEE000800008000000         101030000YD2886429ED            
101030303QUANG TRI           TRIEU PHONG         TRIEU-DO            XUAN-THANH          VENEE000450004500000         101030000YD2866469ED            
101030304QUANG TRI           TRIEU PHONG         TRIEU-DO            AN-LOI              VENEE000950009500000         101030000YD2856109ED            
101030305QUANG TRI           TRIEU PHONG         TRIEU-DO            AN-GIA              VENEE000220002200000         101030000YD2756229ED            
101030306QUANG TRI           TRIEU PHONG         TRIEU-DO            DONG-GIAM           VENEE000020000200000         101030000YD2816179ED            
101030307QUANG TRI           TRIEU PHONG         TRIEU-DO            TRUNG YEN           VENEE000400004000000         101030000YD2806129ED            
101030308QUANG TRI           TRIEU PHONG         TRIEU-DO            THANH-LIEM          VENEE000700007000000         101030000YD2896309ED            
101030309QUANG TRI           TRIEU PHONG         TRIEU-DO            VAN TRONG DUC       VENEE001020010200000         101030000YD2786199ED            
101030310QUANG TRI           TRIEU PHONG         TRIEU-DO            VAN HA DUC          VENEE000210002100000         101030000YD2876449ED            
101030400QUANG TRI           TRIEU PHONG         TRIEU-LANG                              EENND000735000000000000000735101030401                       
101030401QUANG TRI           TRIEU PHONG         TRIEU-LANG          AN-HAO              NNNNN000000000000000         101000000YD4485969NN            
101030402QUANG TRI           TRIEU PHONG         TRIEU-LANG          BA-LANG             NNNNN000000000000000         101000000YD4505959NN            
101030403QUANG TRI           TRIEU PHONG         TRIEU-LANG          NHAT-TAN            NNNNN000000000000000         101000000YD4555889NN            
101030404QUANG TRI           TRIEU PHONG         TRIEU-LANG          GIA-DANG I          NNNNN000000000000000         101000000YD4575899NN            
101030405QUANG TRI           TRIEU PHONG         TRIEU-LANG          GIA-DANG II         NNNNN000000000000000         101000000YD4555909NN            
101030406QUANG TRI           TRIEU PHONG         TRIEU-LANG          GIA-DANG III        NNNNN000000000000000         101000000YD4535919NN            
101030600QUANG TRI           TRIEU PHONG         TRIEU-LONG                              EENND000704000040000000000664101030601                       
101030601QUANG TRI           TRIEU PHONG         TRIEU-LONG          BICH-KHE            NNNNN000000000000000         101000000YD3305609NN            
101030602QUANG TRI           TRIEU PHONG         TRIEU-LONG          TAN-DINH            NNNNN000000000000000         101000000YD3205579NN            
101030603QUANG TRI           TRIEU PHONG         TRIEU-LONG          AN-MO               NNNNN000000000000000         101000000YD3105659NN            
101030604QUANG TRI           TRIEU PHONG         TRIEU-LONG          DAI-LOC-THUONG      NNNNN000000000000000         101000000YD3255659NN            
101030605QUANG TRI           TRIEU PHONG         TRIEU-LONG          BICH-LA-THUONG      NNNNN000000000000000         101000000YD3185759NN            
101030606QUANG TRI           TRIEU PHONG         TRIEU-LONG          VAN-LONG            NNNNN000000000000000         101000000YD3205689NN            
101030607QUANG TRI           TRIEU PHONG         TRIEU-LONG          DAU-KENH            NNNNN000000000000000         101000000YD3225849NN            
101030608QUANG TRI           TRIEU PHONG         TRIEU-LONG          PHUONG-NGAN         NNNNN000000000000000         101000000YD3225829NN            
101030609QUANG TRI           TRIEU PHONG         TRIEU-LONG          PHU-LUU             NNNNN000000000000000         101000000YD3255909NN            
101030610QUANG TRI           TRIEU PHONG         TRIEU-LONG          VE NGHIA            VEEEE000400004000000         101030000YD3295950ED            
101030800QUANG TRI           TRIEU PHONG         TRIEU-GIANG                             VEEEE000142000142000000000000101030803                       
101030801QUANG TRI           TRIEU PHONG         TRIEU-GIANG         PHU-ANG             VENEE000150001500000         101030000YD2855749ED            
101030802QUANG TRI           TRIEU PHONG         TRIEU-GIANG         PHUOC-MY            VENEE000070000700000         101030000YD2895729ED            
101030803QUANG TRI           TRIEU PHONG         TRIEU-GIANG         TA-KIEN             VENEE000100001000000         101030000YD3055779ED            
101030804QUANG TRI           TRIEU PHONG         TRIEU-GIANG         GIANG HEN           VENEE000190001900000         101030000YD3025749ED            
101030805QUANG TRI           TRIEU PHONG         TRIEU-GIANG         TIEN-KIEN           VENEE000080000800000         101030000YD3045679ED            
101030806QUANG TRI           TRIEU PHONG         TRIEU-GIANG         TRA-LIEN            VEEEE000830008300000         101030000YD3055850ED            
101030900QUANG TRI           TRIEU PHONG         TRIEU-HOA                               EENND000115000000000000000115101030902                       
101030901QUANG TRI           TRIEU PHONG         TRIEU-HOA           HA MY               NNNNN000000000000000         101000000YD3355729NN            
101030902QUANG TRI           TRIEU PHONG         TRIEU-HOA           AN-LONG             NNNNN000000000000000         101000000YD3465849NN            
101030903QUANG TRI           TRIEU PHONG         TRIEU-HOA           HUU-NIEN            NNNNN000000000000000         101000000YD3485939NN            
101030904QUANG TRI           TRIEU PHONG         TRIEU-HOA           MY-LOC              NNNNN000000000000000         101000000YD3376199NN            
101030905QUANG TRI           TRIEU PHONG         TRIEU-HOA           BO-LIEU             NNNNN000000000000000         101000000YD3325859NN            
101030906QUANG TRI           TRIEU PHONG         TRIEU-HOA           DUY-HOA             NNNNN000000000000000         101000000YD3305969NN            
101030907QUANG TRI           TRIEU PHONG         TRIEU-HOA           VAN-HOA             NNNNN000000000000000         101000000YD3505959NN            
101031000QUANG TRI           TRIEU PHONG         TRIEU-PHUOC                             VENEE000267000267000000000000101031006                       
101031001QUANG TRI           TRIEU PHONG         TRIEU-PHUOC         AN-CU-PHUONG        VENEE000290002900000         101030000YD3246599ED            
101031002QUANG TRI           TRIEU PHONG         TRIEU-PHUOC         AN-LOI-THUONG       VENEE000270002700000         101030000YD3226599ED            
101031003QUANG TRI           TRIEU PHONG         TRIEU-PHUOC         CAO-HY              VENEE000250002500000         101030000YD3206469ED            
101031004QUANG TRI           TRIEU PHONG         TRIEU-PHUOC         DUONG-XUAN          VENEE000150001500000         101030000YD3086609ED            
101031005QUANG TRI           TRIEU PHONG         TRIEU-PHUOC         DUY-PHIEN           VENEE000530005300000         101030000YD3076659ED            
101031006QUANG TRI           TRIEU PHONG         TRIEU-PHUOC         LUONG-KIM           VENEE000670006700000         101030000YD3256509ED            
101031007QUANG TRI           TRIEU PHONG         TRIEU-PHUOC         NHU-LY              VENEE000030000300000         101030000YD3166329ED            
101031008QUANG TRI           TRIEU PHONG         TRIEU-PHUOC         PHUOC-LE            VENEE000120001200000         101030000YD3156299ED            
101031009QUANG TRI           TRIEU PHONG         TRIEU-PHUOC         VINH-LAI            VENEE000110001100000         101030000YD3276379ED            
101031010QUANG TRI           TRIEU PHONG         TRIEU-PHUOC         VIET-YEN            VENEE000100001000000         101030000YD3056409ED            
101031011QUANG TRI           TRIEU PHONG         TRIEU-PHUOC         AN-CU               VENEE000150001500000         101030000YD3106559ED            
101031100QUANG TRI           TRIEU PHONG         TRIEU-SON                               EENND000080000000000000000080101031104                       
101031101QUANG TRI           TRIEU PHONG         TRIEU-SON           PHUONG-SON          NNNNN000000000000000         101000000YD3845879NN            
101031102QUANG TRI           TRIEU PHONG         TRIEU-SON           AN-LUU              NNNNN000000000000000         101000000YD3925849NN            
101031103QUANG TRI           TRIEU PHONG         TRIEU-SON           AN-PHU              NNNNN000000000000000         101000000YD3995799NN            
101031104QUANG TRI           TRIEU PHONG         TRIEU-SON           THUONG-TRACH        NNNNN000000000000000         101000000YD4025769NN            
101031105QUANG TRI           TRIEU PHONG         TRIEU-SON           LINH-CHIEU          NNNNN000000000000000         101000000YD4195619NN            
101031106QUANG TRI           TRIEU PHONG         TRIEU-SON           VAN-PHONG           NNNNN000000000000000         101000000YD4065659NN            
101031107QUANG TRI           TRIEU PHONG         TRIEU-SON           DONG-BAO            NNNNN000000000000000         101000000YD3985649NN            
101031200QUANG TRI           TRIEU PHONG         TRIEU-TAI                               EENND000078000000000000000078101031205                       
101031201QUANG TRI           TRIEU PHONG         TRIEU-TAI           BICH-LA-HAU         NNNNN000000000000000         101000000YD3675609NN            
101031202QUANG TRI           TRIEU PHONG         TRIEU-TAI           AN-TRU              NNNNN000000000000000         101000000YD3785649NN            
101031203QUANG TRI           TRIEU PHONG         TRIEU-TAI           PHU-LIEU            NNNNN000000000000000         101000000YD3655849NN            
101031204QUANG TRI           TRIEU PHONG         TRIEU-TAI           THAM-TRIEU          NNNNN000000000000000         101000000YD3725529NN            
101031205QUANG TRI           TRIEU PHONG         TRIEU-TAI           TA-HUU              NNNNN000000000000000         101000000YD3605489NN            
101031206QUANG TRI           TRIEU PHONG         TRIEU-TAI           THANH-LE            NNNNN000000000000000         101000000YD3805539NN            
101031207QUANG TRI           TRIEU PHONG         TRIEU-TAI           ANH-TUAN            NNNNN000000000000000         101000000YD3625579NN            
101031208QUANG TRI           TRIEU PHONG         TRIEU-TAI           TAI-LUONG           NNNNN000000000000000         101000000YD3805759NN            
101031209QUANG TRI           TRIEU PHONG         TRIEU-TAI           AN-HUNG             NNNNN000000000000000         101000000YD3685809NN            
101031300QUANG TRI           TRIEU PHONG         TRIEU-THANH                             EENND000095000000000000000095101031307                       
101031301QUANG TRI           TRIEU PHONG         TRIEU-THANH         BICH-LA-DONG        NNNNN000000000000000         101000000YD3605769NN            
101031302QUANG TRI           TRIEU PHONG         TRIEU-THANH         VAN TAN-XUAN        NNNNN000000000000000         101000000YD3395499NN            
101031303QUANG TRI           TRIEU PHONG         TRIEU-THANH         VAN TRONG DUC       NNNNN000000000000000         101000000YD3355489NN            
101031304QUANG TRI           TRIEU PHONG         TRIEU-THANH         BICH LA TRUNG       NNNNN000000000000000         101000000YD3495739NN            
101031305QUANG TRI           TRIEU PHONG         TRIEU-THANH         BICH-LA NAM         NNNNN000000000000000         101000000YD3435669NN            
101031306QUANG TRI           TRIEU PHONG         TRIEU-THANH         AN-TIEM             NNNNN000000000000000         101000000YD3475449NN            
101031307QUANG TRI           TRIEU PHONG         TRIEU-THANH         NAI-CUU             NNNNN000000000000000         101000000YD3455559NN            
101031308QUANG TRI           TRIEU PHONG         TRIEU-THANH         CO-THANH            NNNNN000000000000000         101000000YD3375509NN            
101031309QUANG TRI           TRIEU PHONG         TRIEU-THANH         HAU-KIEN            NNNNN000000000000000         101000000YD3375529NN            
101031400QUANG TRI           TRIEU PHONG         TRIEU-THUAN                             VENEE000142000142000000000000101031400                       
101031401QUANG TRI           TRIEU PHONG         TRIEU-THUAN         DUONG-LE-DONG       VENEE000070000700000         101030000YD3006009ED            
101031402QUANG TRI           TRIEU PHONG         TRIEU-THUAN         DUONG-LE-VAN        VENEE000230002300000         101030000YD2966079ED            
101031403QUANG TRI           TRIEU PHONG         TRIEU-THUAN         DUONG-LOC           VENEE000050000500000         101030000YD2936109ED            
101031404QUANG TRI           TRIEU PHONG         TRIEU-THUAN         DAI-LOC             VENEE000020000200000         101030000YD3005959ED            
101031405QUANG TRI           TRIEU PHONG         TRIEU-THUAN         VO-THUAN            VENEE000130001300000         101030000YD3205949ED            
101031406QUANG TRI           TRIEU PHONG         TRIEU-THUAN         PHUC-LOC            VENEE000570005700000         101030000YD3105989ED            
101031407QUANG TRI           TRIEU PHONG         TRIEU-THUAN         AN-BINH             VENEE000100001000000         101030000YD3105909ED            
101031408QUANG TRI           TRIEU PHONG         TRIEU-THUAN         TRUC-THUAN          VENEE000040000400000         101030000YD3225929ED            
101031409QUANG TRI           TRIEU PHONG         TRIEU-THUAN         VAN DAI LOC         VENEE000210002100000         101030000YD2935919ED            
101031500QUANG TRI           TRIEU PHONG         TRIEU-TRACH                             EENND000185000046000000000139101031506                       
101031501QUANG TRI           TRIEU PHONG         TRIEU-TRACH         LE-XUYEN            NNNNN000000000000000         101000000YD3376379NN            
101031502QUANG TRI           TRIEU PHONG         TRIEU-TRACH         BO BAN              NNNNN000000000000000         101000000YD3386299NN            
101031503QUANG TRI           TRIEU PHONG         TRIEU-TRACH         LONG QUANG          NNNNN000000000000000         101000000YD3656159NN            
101031504QUANG TRI           TRIEU PHONG         TRIEU-TRACH         LINH AN             NNNNN000000000000000         101000000YD3726009NN            
101031505QUANG TRI           TRIEU PHONG         TRIEU-TRACH         VAN-TUONG           VENEE000380003800000         101030000YD3566189ED            
101031506QUANG TRI           TRIEU PHONG         TRIEU-TRACH         AN-TRACH            VENEE000080000800000         101030000YD3476269ED            
101031600QUANG TRI           TRIEU PHONG         TRIEU-TRUNG                             EENND000138000000000000000138101031602                       
101031601QUANG TRI           TRIEU PHONG         TRIEU-TRUNG         DAO-DAU             NNNNN000000000000000         101000000YD3855589NN            
101031602QUANG TRI           TRIEU PHONG         TRIEU-TRUNG         NGO XA DONG         NNNNN000000000000000         101000000YD3925449NN            
101031603QUANG TRI           TRIEU PHONG         TRIEU-TRUNG         NGO XA TAY          NNNNN000000000000000         101000000YD3805469NN            
101031604QUANG TRI           TRIEU PHONG         TRIEU-TRUNG         XUAN-DUONG          NNNNN000000000000000         101000000YD4025509NN            
101031605QUANG TRI           TRIEU PHONG         TRIEU-TRUNG         TAM-HUU             NNNNN000000000000000         101000000YD4085539NN            
101031606QUANG TRI           TRIEU PHONG         TRIEU-TRUNG         MY-KHE              NNNNN000000000000000         101000000YD4055559NN            
101031607QUANG TRI           TRIEU PHONG         TRIEU-TRUNG         TRUNG-AN            NNNNN000000000000000         101000000YD3895629NN            
101031700QUANG TRI           TRIEU PHONG         TRIEU-VAN                               VENND000177000082000005000090101031703                       
101031701QUANG TRI           TRIEU PHONG         TRIEU-VAN           TUONG-VAN           VENEE000100001000000         101030000YD3306759ED            
101031702QUANG TRI           TRIEU PHONG         TRIEU-VAN           HA-TAY              VENEE000500005000000         101030000YD3406809ED            
101031703QUANG TRI           TRIEU PHONG         TRIEU-VAN           PHO-HOI             VENEE000070000700000         101030000YD3356889ED            
101031704QUANG TRI           TRIEU PHONG         TRIEU-VAN           THANH-XUAN B        VENEE000050000000005         101030000YD3406809ED            
101031705QUANG TRI           TRIEU PHONG         TRIEU-VAN           VINH-HUE B          NNNNN000000000000000         101000000YD3406809NN            
101031706QUANG TRI           TRIEU PHONG         TRIEU-VAN           THANH-HOI B         NNNNN000000000000000         101000000YD3406809NN            
101031707QUANG TRI           TRIEU PHONG         TRIEU-VAN           BINH-AN B           NNNNN000000000000000         101000000YD3406809NN            
101031708QUANG TRI           TRIEU PHONG         TRIEU-VAN           THANH XUAN          VEEEE000050000500000         101030000YD3406780ED            
101031709QUANG TRI           TRIEU PHONG         TRIEU-VAN           VINH HUE            VEEEE000050000500000         101030000YD3436850ED            
101031710QUANG TRI           TRIEU PHONG         TRIEU-VAN           THANH HOI           VEEEE000050000500000         101030000YD3436850ED            
101031800QUANG TRI           TRIEU PHONG         BA THANH                                EENNE000100000000000000000100101031800                       
101031801QUANG TRI           TRIEU PHONG         BA THANH            A VONG              NNNNN000000000000000         101000000        9NN            
101031802QUANG TRI           TRIEU PHONG         BA THANH            LANG CAI            NNNNN000000000000000         101000000        9NN            
101031803QUANG TRI           TRIEU PHONG         BA THANH            DONG DON            NNNNN000000000000000         101000000        9NN            
101031900QUANG TRI           TRIEU PHONG         BA XUAN                                 EENNE000100000000000000000100101031900                       
101031901QUANG TRI           TRIEU PHONG         BA XUAN             NA NAM              NNNNN000000000000000         101000000        9NN            
101031902QUANG TRI           TRIEU PHONG         BA XUAN             XUAN LAM            NNNNN000000000000000         101000000        9NN            
101031903QUANG TRI           TRIEU PHONG         BA XUAN             MAI SON             NNNNN000000000000000         101000000        9NN            
101032000QUANG TRI           TRIEU PHONG         BA LUONG                                EENNE000100000000000000000100101032000                       
101032001QUANG TRI           TRIEU PHONG         BA LUONG            DA NOI              NNNNN000000000000000         101000000        9NN            
101032002QUANG TRI           TRIEU PHONG         BA LUONG            LUONG HA            NNNNN000000000000000         101000000        9NN            
101032003QUANG TRI           TRIEU PHONG         BA LUONG            KHE OIUA            NNNNN000000000000000         101000000        9NN            
101032004QUANG TRI           TRIEU PHONG         BA LUONG            KHE CAY             NNNNN000000000000000         101000000        9NN            
101032005QUANG TRI           TRIEU PHONG         BA LUONG            HA VUNG             NNNNN000000000000000         101000000        9NN            
101032006QUANG TRI           TRIEU PHONG         BA LUONG            THACH XA            NNNNN000000000000000         101000000        9NN            
101032007QUANG TRI           TRIEU PHONG         BA LUONG            TAN TRA             NNNNN000000000000000         101000000        9NN            
101032008QUANG TRI           TRIEU PHONG         BA LUONG            VAN VA              NNNNN000000000000000         101000000        9NN            
101032100QUANG TRI           TRIEU PHONG         BA HY                                   EENNE000100000000000000000100101032100                       
101032200QUANG TRI           TRIEU PHONG         BA DINH                                 EENNE000100000000000000000100101032200                       
101032300QUANG TRI           TRIEU PHONG         BA LINH                                 EENNE000100000000000000000100101032300                       
101032400QUANG TRI           TRIEU PHONG         BA DANG                                 EENNE000100000000000000000100101032400                       
101032500QUANG TRI           TRIEU PHONG         TRIEU-AI (B)                            NNNNN000000000000000000000000101032500                       
101032600QUANG TRI           TRIEU PHONG         TRIEU-DAI (B)                           NNNNN000000000000000000000000101032600                       
101032700QUANG TRI           TRIEU PHONG         TRIEU-DO (B)                            NNNNN000000000000000000000000101032700                       
101032800QUANG TRI           TRIEU PHONG         TRIEU-LANG (B)                          NNNNN000000000000000000000000101032800                       
101032900QUANG TRI           TRIEU PHONG         TRIEU-LONG (B)                          NNNNN000000000000000000000000101032900                       
101033000QUANG TRI           TRIEU PHONG         TRIEU-GIANG (B)                         NNNNN000000000000000000000000101033000                       
101033100QUANG TRI           TRIEU PHONG         TRIEU-HOA (B)                           NNNNN000000000000000000000000101033100                       
101033200QUANG TRI           TRIEU PHONG         TRIEU-PHUOC (B)                         NNNNN000000000000000000000000101033200                       
101033300QUANG TRI           TRIEU PHONG         TRIEU-SON (B)                           NNNNN000000000000000000000000101033300                       
101033400QUANG TRI           TRIEU PHONG         TRIEU-TAI (B)                           NNNNN000000000000000000000000101033400                       
101033500QUANG TRI           TRIEU PHONG         TRIEU-THANH (B)                         NNNNN000000000000000000000000101033500                       
101033600QUANG TRI           TRIEU PHONG         TRIEU-THUAN (B)                         NNNNN000000000000000000000000101033600                       
101033700QUANG TRI           TRIEU PHONG         TRIEU-TRACH (B)                         NNNNN000000000000000000000000101033700                       
101033800QUANG TRI           TRIEU PHONG         TRIEU-TRUNG (B)                         NNNNN000000000000000000000000101033800                       
101033900QUANG TRI           TRIEU PHONG         TRIEU-VAN (B)                           NNNNN000000000000000000000000101033900                       
101040100QUANG TRI           CAM LO              CAM CHINH                               VNNNN001637001332000305000000101040100                       
101040101QUANG TRI           CAM LO              CAM CHINH           DOC KINH            VNNNN002250022500000         101040000YD0985239EN            
101040102QUANG TRI           CAM LO              CAM CHINH           MAI LOC             VNNNN007050070500000         101040000YD0975259EN            
101040103QUANG TRI           CAM LO              CAM CHINH           MAI DAN             VNNNN001600016000000         101040000YD0985259EN            
101040104QUANG TRI           CAM LO              CAM CHINH           TRUNG CHI           VNNNN000500005000000         101040000YD0945249EN            
101040105QUANG TRI           CAM LO              CAM CHINH           LOC AN              VNNNN001100011000000         101040000YD0975219EN            
101040106QUANG TRI           CAM LO              CAM CHINH           SON NAM             VNNNN000200002000000         101040000YD0955239EN            
101040107QUANG TRI           CAM LO              CAM CHINH           THIET TRANG         VNNNN000400004000000         101040000YD0945259EN            
101040108QUANG TRI           CAM LO              CAM CHINH           HA XA               VNNNN000120001200000         101040000YD0955249EN            
101040109QUANG TRI           CAM LO              CAM CHINH           MINH HUONG          VNNNN000100001000000         101040000YD0955219EN            
101040110QUANG TRI           CAM LO              CAM CHINH           PHU THANH           VNNNN003050000000305         101040000YD1015369EN            
101040200QUANG TRI           CAM LO              CAM NGHIA                               VNNNN001244001244000000000000101040200                       
101040201QUANG TRI           CAM LO              CAM NGHIA           NGHIA PHONG         VNNNN000500005000000         101040000YD0955239EN            
101040202QUANG TRI           CAM LO              CAM NGHIA           CU HOAN             VNNNN000300003000000         101040000YD0915239EN            
101040203QUANG TRI           CAM LO              CAM NGHIA           THUONG NGHIA        VNNNN000900009000000         101040000YD0985249EN            
101040204QUANG TRI           CAM LO              CAM NGHIA           DINH SON            VNNNN001350013500000         101040000YD0985289EN            
101040205QUANG TRI           CAM LO              CAM NGHIA           HUNG CAT            VNNNN000260002600000         101040000YD0985279EN            
101040206QUANG TRI           CAM LO              CAM NGHIA           QUAT XA             VNNNN000570005700000         101040000YD0995269EN            
101040207QUANG TRI           CAM LO              CAM NGHIA           CAM LO PHUONG       VNNNN000900009000000         101040000YD0975389EN            
101040208QUANG TRI           CAM LO              CAM NGHIA           MIEN HOAN           VNNNN000350003500000         101040000YD0975269EN            
101040209QUANG TRI           CAM LO              CAM NGHIA           BANG SON            VNNNN006250062500000         101040000YD0915239EN            
101040210QUANG TRI           CAM LO              CAM NGHIA           HOAN CAT            VNNNN000260002600000         101040000YD0955289EN            
101040211QUANG TRI           CAM LO              CAM NGHIA           PHUONG AN           VNNNN000800008000000         101040000YD0965239EN            
101040300QUANG TRI           CAM LO              CAM-HIEU                                VNNNN000982000982000000000000101040303                       
101040301QUANG TRI           CAM LO              CAM-HIEU            TRUONG-XA           VNNNN000130001300000         101040000YD1985999EN            
101040302QUANG TRI           CAM LO              CAM-HIEU            DINH-XA             VNNNN000090000900000         101040000YD1855959EN            
101040303QUANG TRI           CAM LO              CAM-HIEU            VINH-DAI            VNNNN000080000800000         101040000YD1785939EN            
101040304QUANG TRI           CAM LO              CAM-HIEU            BICH-GIANG          VNNNN000800008000000         101040000YD1756039EN            
101040305QUANG TRI           CAM LO              CAM-HIEU            VINH-AN             VNNNN002420024200000         101040000YD1586039EN            
101040306QUANG TRI           CAM LO              CAM-HIEU            THACH-DAU           VNNNN000230002300000         101040000YD1636089EN            
101040307QUANG TRI           CAM LO              CAM-HIEU            THIET-TRANG         VNNNN000110001100000         101040000YD2025989EN            
101040308QUANG TRI           CAM LO              CAM-HIEU            MOC DUC             VNNNN000040000400000         101040000YD1865929EN            
101040309QUANG TRI           CAM LO              CAM-HIEU            TAN-TRUC            VNNNN000420004200000         101040000YD1545849EN            
101040310QUANG TRI           CAM LO              CAM-HIEU            TAM HIEP            VNNNN000830008300000         101040000YD1606039EN            
101040311QUANG TRI           CAM LO              CAM-HIEU            LAM LANG            VNNNN003290032900000         101040000YD1806069EN            
101040312QUANG TRI           CAM LO              CAM-HIEU            VAN BICH GIANG      VNNNN001380013800000         101040000YD1806049EN            
101040500QUANG TRI           CAM LO              CAM-HUNG                                VNNNN001107000956000051000100101040500                       
101040501QUANG TRI           CAM LO              CAM-HUNG            TAN-DINH            VNNNN000990009900000         101040000YD1185859EN            
101040502QUANG TRI           CAM LO              CAM-HUNG            BA-THUNG B          VNNNN001660011500051         101040000YD1155859EN            
101040503QUANG TRI           CAM LO              CAM-HUNG            TAN-MY              VNNNN000400004000000         101040000YD1085899EN            
101040504QUANG TRI           CAM LO              CAM-HUNG            VAN-BA-THUNG        VNNNN000570005700000         101040000YD1155859EN            
101040505QUANG TRI           CAM LO              CAM-HUNG            PHAN-XA             VNNNN001330013300000         101040000YD1035769EN            
101040506QUANG TRI           CAM LO              CAM-HUNG            AN-HUNG             VNNNN001790017900000         101040000YD1215939EN            
101040507QUANG TRI           CAM LO              CAM-HUNG            CAY-TRAI            VNNNN000840008400000         101040000YD1175819EN            
101040508QUANG TRI           CAM LO              CAM-HUNG            VAN QUAT-XA         VNNNN000210002100000         101040000YD1145899EN            
101040509QUANG TRI           CAM LO              CAM-HUNG            PHUOC-TUYEN         VNNNN000710007100000         101040000YD1185719EN            
101040510QUANG TRI           CAM LO              CAM-HUNG            DAU-BINH            VNNNN001370013700000         101040000YD1155869EN            
101040511QUANG TRI           CAM LO              CAM-HUNG            KHE-CHUA            VNNNN000100001000000         101040000YD1155859EN            
101040512QUANG TRI           CAM LO              CAM-HUNG            BA THUNG            VEEEE000100001000000         101040000YD1195980EN            
101040900QUANG TRI           CAM LO              CAM-THAI                                VNNNN001612001612000000000000101040900                       
101040901QUANG TRI           CAM LO              CAM-THAI            CAM-LO              VNNNN006340063400000         101040000YD1385989EN            
101040902QUANG TRI           CAM LO              CAM-THAI            AN-THAI             VNNNN001010010100000         101040000YD1336089EN            
101040903QUANG TRI           CAM LO              CAM-THAI            AN-MY               VNNNN003020030200000         101040000YD1466079EN            
101040904QUANG TRI           CAM LO              CAM-THAI            THIET TRANG         VNNNN001130011300000         101040000YD1435829EN            
101040905QUANG TRI           CAM LO              CAM-THAI            THUONG-NGUYEN       VNNNN000600006000000         101040000YD1475969EN            
101040906QUANG TRI           CAM LO              CAM-THAI            NGHIA-HY            VNNNN001060010600000         101040000YD1425779EN            
101040907QUANG TRI           CAM LO              CAM-THAI            VAN BICH LO         VNNNN002600026000000         101040000YD1326029EN            
101040908QUANG TRI           CAM LO              CAM-THAI            NAM-THUAN           VNNNN000360003600000         101040000YD1335909EN            
101041100QUANG TRI           CAM LO              XA RUONG                                EENNE000100000000000000000100101041100                       
101041200QUANG TRI           CAM LO              XA CAT                                  EENNE000100000000000000000100101041200                       
101041600QUANG TRI           CAM LO              CAM PHU                                 EENNE000359000000000000000359101041600                       
101041601QUANG TRI           CAM LO              CAM PHU             SON LAM             NNNNN000000000000000         101000000YD0004809NN            
101041602QUANG TRI           CAM LO              CAM PHU             CAY MUONG           NNNNN000000000000000         101000000YD0004809NN            
101041603QUANG TRI           CAM LO              CAM PHU             KHE KIEU            NNNNN000000000000000         101000000YD0004809NN            
101041604QUANG TRI           CAM LO              CAM PHU             KHE TRI             NNNNN000000000000000         101000000YD0004809NN            
101041605QUANG TRI           CAM LO              CAM PHU             AN THAI             NNNNN000000000000000         101000000YD0004809NN            
101041606QUANG TRI           CAM LO              CAM PHU             HA BAC              NNNNN000000000000000         101000000YD0004809NN            
101041607QUANG TRI           CAM LO              CAM PHU             NGA HAI             NNNNN000000000000000         101000000YD0004809NN            
101041608QUANG TRI           CAM LO              CAM PHU             THIEN XUAN          NNNNN000000000000000         101000000YD0004809NN            
101041609QUANG TRI           CAM LO              CAM PHU             KHE XONG            NNNNN000000000000000         101000000YD0004809NN            
101041610QUANG TRI           CAM LO              CAM PHU             KHE LAM             NNNNN000000000000000         101000000YD0004809NN            
101041611QUANG TRI           CAM LO              CAM PHU             PHU AN              NNNNN000000000000000         101000000YD0004809NN            
101041700QUANG TRI           CAM LO              TRUNG HAI                               EENNE001015000000000000001015101041700                       
101041701QUANG TRI           CAM LO              TRUNG HAI           XUAN HOA            NNNNN000000000000000         101000000YD1997999NN            
101041702QUANG TRI           CAM LO              TRUNG HAI           HAI CHU             NNNNN000000000000000         101000000YD1997899NN            
101041703QUANG TRI           CAM LO              TRUNG HAI           XUAN LONG           NNNNN000000000000000         101000000YD2157989NN            
101041704QUANG TRI           CAM LO              TRUNG HAI           BANH LOC            NNNNN000000000000000         101000000YD2407919NN            
101041705QUANG TRI           CAM LO              TRUNG HAI           CAT SON             NNNNN000000000000000         101000000YD2507999NN            
101041706QUANG TRI           CAM LO              TRUNG HAI           XUAN MY             NNNNN000000000000000         101000000YD2407999NN            
101041800QUANG TRI           CAM LO              TRUNG SON                               EENNE000981000000000000000981101041800                       
101041801QUANG TRI           CAM LO              TRUNG SON           VO XA               NNNNN000000000000000         101000000YD1947809NN            
101041802QUANG TRI           CAM LO              TRUNG SON           KINH THI            NNNNN000000000000000         101000000YD1707409NN            
101041803QUANG TRI           CAM LO              TRUNG SON           XOM QUAN            NNNNN000000000000000         101000000YD1607749NN            
101041804QUANG TRI           CAM LO              TRUNG SON           AN XUAN             NNNNN000000000000000         101000000YD1457799NN            
101041805QUANG TRI           CAM LO              TRUNG SON           HAI CU              NNNNN000000000000000         101000000YD1327749NN            
101041806QUANG TRI           CAM LO              TRUNG SON           CAM SON             NNNNN000000000000000         101000000YD1777559NN            
101041807QUANG TRI           CAM LO              TRUNG SON           KIM MON             NNNNN000000000000000         101000000YD1907629NN            
101041808QUANG TRI           CAM LO              TRUNG SON           AN XA               NNNNN000000000000000         101000000YD1787509NN            
101041900QUANG TRI           CAM LO              TRUNG GIANG                             EENNE000379000000000000000379101041900                       
101041901QUANG TRI           CAM LO              TRUNG GIANG         CAO XA              NNNNN000000000000000         101000000YD2107699NN            
101041902QUANG TRI           CAM LO              TRUNG GIANG         AN LOC              NNNNN000000000000000         101000000YD2337829NN            
101041903QUANG TRI           CAM LO              TRUNG GIANG         THUY KHE            NNNNN000000000000000         101000000YD2457839NN            
101041904QUANG TRI           CAM LO              TRUNG GIANG         CAM PHO             NNNNN000000000000000         101000000YD2357559NN            
101041905QUANG TRI           CAM LO              TRUNG GIANG         GUONG GIAN          NNNNN000000000000000         101000000YD2457889NN            
101041906QUANG TRI           CAM LO              TRUNG GIANG         THUY BAN            NNNNN000000000000000         101000000YD2507989NN            
101042000QUANG TRI           CAM LO              CAM-CHINH (B)                           NNNNN000000000000000000000000101042000                       
101042100QUANG TRI           CAM LO              CAM NGHIA (B)                           NNNNN000000000000000000000000101042100                       
101042200QUANG TRI           CAM LO              CAM HIEU (B)                            NNNNN000000000000000000000000101042200                       
101042300QUANG TRI           CAM LO              CAM HUNG (B)                            NNNNN000000000000000000000000101042300                       
101042400QUANG TRI           CAM LO              CAM THAI (B)                            NNNNN000000000000000000000000101042400                       
101050200QUANG TRI           GIO LINH            GIO-LE                                  VNNNN002899001921000000000978101050201                       
101050201QUANG TRI           GIO LINH            GIO-LE              LE-MON              VNNNN000150001500000         101050000YD2246809EN            
101050202QUANG TRI           GIO LINH            GIO-LE              HA-TRUNG            VNNNN001200012000000         101050000YD2177059EN            
101050203QUANG TRI           GIO LINH            GIO-LE              TRUC-LAM            VNNNN000160001600000         101050000YD2226669EN            
101050204QUANG TRI           GIO LINH            GIO-LE              HA-THANH            VNNNN000600006000000         101050000YD2176999EN            
101050205QUANG TRI           GIO LINH            GIO-LE              HA-THUONG           VNNNN015600156000000         101050000YD2217199EN            
101050206QUANG TRI           GIO LINH            GIO-LE              LAC-TAN             VNNNN001500015000000         101050000YD2177319EN            
101050300QUANG TRI           GIO LINH            GIO HA                                  VNNNN001807001807000000000000101050300                       
101050301QUANG TRI           GIO LINH            GIO HA              MAI XA CHANH        VNNNN008800088000000         101050000YD2786659EN            
101050302QUANG TRI           GIO LINH            GIO HA              LAM XUAN            VNNNN003010030100000         101050000YD2696869EN            
101050303QUANG TRI           GIO LINH            GIO HA              MAI-XA THI          VNNNN001680016800000         101050000YD2806669EN            
101050304QUANG TRI           GIO LINH            GIO HA              VINH QUANG THUONG   VNNNN000750007500000         101050000YD2616480EN            
101050305QUANG TRI           GIO LINH            GIO HA              KY TRUC             VNNNN001660016600000         101050000YD2496669EN            
101050306QUANG TRI           GIO LINH            GIO HA              KY LAM              VNNNN000520005200000         101050000YD2506649EN            
101050307QUANG TRI           GIO LINH            GIO HA              PHUOC-SA            VNNNN000350003500000         101050000YD2386899EN            
101050308QUANG TRI           GIO LINH            GIO HA              VINH QUANG-HA       VNNNN001300013000000         101050000YD2676489EN            
101050400QUANG TRI           GIO LINH            GIO-HAI                                 VNNNN003902003902000000000000101050408                       
101050401QUANG TRI           GIO LINH            GIO-HAI             HA-LOC              VNNNN000590005900000         101050000YD3066819EN            
101050402QUANG TRI           GIO LINH            GIO-HAI             XUAN-KHANH          VNNNN002640026400000         101050000YD3086849EN            
101050403QUANG TRI           GIO LINH            GIO-HAI             HA LOI-THUONG       VNNNN008080080800000         101050000YD3336989EN            
101050404QUANG TRI           GIO LINH            GIO-HAI             TAN-XUAN            VNNNN000500005000000         101050000YD3046809EN            
101050405QUANG TRI           GIO LINH            GIO-HAI             DAI-LOC             VNNNN001470014700000         101050000YD3156909EN            
101050406QUANG TRI           GIO LINH            GIO-HAI             BACH CAU            VNNNN000100001000000         101050400YD2236849EN            
101050407QUANG TRI           GIO LINH            GIO-HAI             HOANG HA            VNNNN000100001000000         101050000YD3016829EN            
101050408QUANG TRI           GIO LINH            GIO-HAI             LONG-HA             VNNNN003070030700000         101050000YD3206959EN            
101050409QUANG TRI           GIO LINH            GIO-HAI             AN-TRUNG            VNNNN003550035500000         101050000YD3156999EN            
101050410QUANG TRI           GIO LINH            GIO-HAI             DIEM HA-HA          VNNNN003470034700000         101050000YD3207009EN            
101050411QUANG TRI           GIO LINH            GIO-HAI             HA LOI TRUNG        VNNNN004350043500000         101050000YD3306989EN            
101050412QUANG TRI           GIO LINH            GIO-HAI             DIEM HA THUONG      VNNNN001460014600000         101050000YD3046829EN            
101050413QUANG TRI           GIO LINH            GIO-HAI             HA LOI TAY          VNNNN004280042800000         101050000YD3267019EN            
101050414QUANG TRI           GIO LINH            GIO-HAI             DIEM HA TRUNG       VNNNN005270052700000         101050000YD3276979EN            
101050415QUANG TRI           GIO LINH            GIO-HAI             BAC VONG            VNNNN000090000900000         101050400        9EN            
101050700QUANG TRI           GIO LINH            GIO AN                                  VNNNN000134000134000000000000101050700                       
101050701QUANG TRI           GIO LINH            GIO AN              AN NHA              NNNNN000000000000000         101000000YD1337189NN            
101050702QUANG TRI           GIO LINH            GIO AN              XUAN HOA            VNNNN000020000200000         101050000YD1337189EN            
101050703QUANG TRI           GIO LINH            GIO AN              HUONG THANH         VNNNN000140001400000         101050000YD1337189EN            
101050704QUANG TRI           GIO LINH            GIO AN              BINH XUAN           VNNNN000040000400000         101050000YD1337189EN            
101050705QUANG TRI           GIO LINH            GIO AN              TAN LICH            VNNNN000780007800000         101050000YD1337189EN            
101050706QUANG TRI           GIO LINH            GIO AN              TAN HA              VNNNN000190001900000         101050000YD1337189EN            
101050707QUANG TRI           GIO LINH            GIO AN              PHUONG XUAN         NNNNN000000000000000         101000000YD1337189NN            
101050708QUANG TRI           GIO LINH            GIO AN              HAO AN              VNNNN000100001000000         101050000YD1337189EN            
101050709QUANG TRI           GIO LINH            GIO AN              TAN VAN             VNNNN000010000100000         101050000YD1337189EN            
101050710QUANG TRI           GIO LINH            GIO AN              LONG SON            VNNNN000060000600000         101050000YD1337189EN            
101050800QUANG TRI           GIO LINH            GIO SON                                 VNNNN000226000226000000000000101050800                       
101050801QUANG TRI           GIO LINH            GIO SON             VAN KIM             NNNNN000000000000000         101000000YD1566919NN            
101050802QUANG TRI           GIO LINH            GIO SON             QUANG XA            NNNNN000000000000000         101000000YD1566919NN            
101050803QUANG TRI           GIO LINH            GIO SON             LAC SON             NNNNN000000000000000         101000000YD1566919NN            
101050804QUANG TRI           GIO LINH            GIO SON             PHU DUONG           VNNNN000340003400000         101050000YD1566919EN            
101050805QUANG TRI           GIO LINH            GIO SON             NAM TAN             VNNNN001110011100000         101050000YD1566919EN            
101050806QUANG TRI           GIO LINH            GIO SON             BAI AN              NNNNN000000000000000         101000000YD1566919NN            
101050807QUANG TRI           GIO LINH            GIO SON             TRUNG AN            VNNNN000230002300000         101050000YD1566919EN            
101050808QUANG TRI           GIO LINH            GIO SON             AN HA               VNNNN000170001700000         101050000YD1566919EN            
101050809QUANG TRI           GIO LINH            GIO SON             TAN HOA             VNNNN000100001000000         101050000YD1566919EN            
101050810QUANG TRI           GIO LINH            GIO SON             NAM PHU             VNNNN000100001000000         101050000YD1566919EN            
101050811QUANG TRI           GIO LINH            GIO SON             TAN XUYEN           VNNNN000200002000000         101050000YD1566919EN            
101050812QUANG TRI           GIO LINH            GIO SON             PHUNG AN            VNNNN000010000100000         101050000YD1566919EN            
101050813QUANG TRI           GIO LINH            GIO SON             NINH PHU            NNNNN000000000000000         101000000YD1566919NN            
101050900QUANG TRI           GIO LINH            GIO MY                                  VNNNN001825001825000000000000101050900                       
101050901QUANG TRI           GIO LINH            GIO MY              NHI TRUNG           VNNNN003140031400000         101050000YD2707269EN            
101050902QUANG TRI           GIO LINH            GIO MY              NHI THUONG          VNNNN005570055700000         101050000YD2727249EN            
101050903QUANG TRI           GIO LINH            GIO MY              PHUOC THI           VNNNN000540005400000         101050000YD2807369EN            
101050904QUANG TRI           GIO LINH            GIO MY              AN MY               VNNNN001600016000000         101050000YD2817449EN            
101050905QUANG TRI           GIO LINH            GIO MY              LAI AN              VNNNN005830058300000         101050000YD2437239EN            
101050906QUANG TRI           GIO LINH            GIO MY              NHI HA              VNNNN001570015700000         101050000YD2657659EN            
101051000QUANG TRI           GIO LINH            GIO-LE (B)                              NNNNN000000000000000000000000101051000                       
101051100QUANG TRI           GIO LINH            GIO-HA (B)                              NNNNN000000000000000000000000101051100                       
101051200QUANG TRI           GIO LINH            GIO-MY (B)                              NNNNN000000000000000000000000101051200                       
101051300QUANG TRI           GIO LINH            GIO-HAI (B)                             NNNNN000000000000000000000000101051300                       
101051400QUANG TRI           GIO LINH            GIO-AN (B)                              NNNNN000000000000000000000000101051400                       
101051500QUANG TRI           GIO LINH            GIO-SON (B)                             NNNNN000000000000000000000000101051500                       
101080200QUANG TRI           HUONG-HOA           HUONG QUANG                             EEEEE000100000000000000000100101080200                       
101080201QUANG TRI           HUONG-HOA           HUONG QUANG         A RONG              NNNNN000000000000000         101000000        9NN            
101080202QUANG TRI           HUONG-HOA           HUONG QUANG         NGUON RAO           NNNNN000000000000000         101000000        9NN            
101080400QUANG TRI           HUONG-HOA           HUONG THANH                             EEEEE000100000000000000000100101080400                       
101080401QUANG TRI           HUONG-HOA           HUONG THANH         NGUYET RUNG         NNNNN000000000000000         101000000        9NN            
101080402QUANG TRI           HUONG-HOA           HUONG THANH         PO TUNG             NNNNN000000000000000         101000000        9NN            
101080403QUANG TRI           HUONG-HOA           HUONG THANH         XA CUP              NNNNN000000000000000         101000000        9NN            
101080404QUANG TRI           HUONG-HOA           HUONG THANH         XA RO               NNNNN000000000000000         101000000        9NN            
101080405QUANG TRI           HUONG-HOA           HUONG THANH         XA TUONG            NNNNN000000000000000         101000000        9NN            
101080500QUANG TRI           HUONG-HOA           HUONG MAI                               EEEEE000100000000000000000100101080500                       
101080501QUANG TRI           HUONG-HOA           HUONG MAI           NUA TRUNG 1         NNNNN000000000000000         101000000        9NN            
101080502QUANG TRI           HUONG-HOA           HUONG MAI           NUA TRUNG 2         NNNNN000000000000000         101000000        9NN            
101080503QUANG TRI           HUONG-HOA           HUONG MAI           TAM THANH I         NNNNN000000000000000         101000000        9NN            
101080504QUANG TRI           HUONG-HOA           HUONG MAI           TAM THANH II        NNNNN000000000000000         101000000        9NN            
101080505QUANG TRI           HUONG-HOA           HUONG MAI           THAM THANH III      NNNNN000000000000000         101000000        9NN            
101080506QUANG TRI           HUONG-HOA           HUONG MAI           BA LO VAC           NNNNN000000000000000         101000000        9NN            
101080507QUANG TRI           HUONG-HOA           HUONG MAI           NUA CO              NNNNN000000000000000         101000000        9NN            
101080508QUANG TRI           HUONG-HOA           HUONG MAI           LANG XUNG           NNNNN000000000000000         101000000        9NN            
101080509QUANG TRI           HUONG-HOA           HUONG MAI           PA XUOI             NNNNN000000000000000         101000000        9NN            
101080510QUANG TRI           HUONG-HOA           HUONG MAI           PA RO LOANG         NNNNN000000000000000         101000000        9NN            
101080511QUANG TRI           HUONG-HOA           HUONG MAI           CA DAP              NNNNN000000000000000         101000000        9NN            
101080600QUANG TRI           HUONG-HOA           HUONG BINH                              EEEEE000100000000000000000100101080600                       
101080601QUANG TRI           HUONG-HOA           HUONG BINH          A GIOI CO           NNNNN000000000000000         101000000        9NN            
101080602QUANG TRI           HUONG-HOA           HUONG BINH          A GIOI DO           NNNNN000000000000000         101000000        9NN            
101080603QUANG TRI           HUONG-HOA           HUONG BINH          XA DOAN MOI         NNNNN000000000000000         101000000        9NN            
101080604QUANG TRI           HUONG-HOA           HUONG BINH          TAN DU              NNNNN000000000000000         101000000        9NN            
101080605QUANG TRI           HUONG-HOA           HUONG BINH          LANG MAN HA         NNNNN000000000000000         101000000        9NN            
101080606QUANG TRI           HUONG-HOA           HUONG BINH          LANG MAN THUONG     NNNNN000000000000000         101000000        9NN            
101080607QUANG TRI           HUONG-HOA           HUONG BINH          TROAN HA            NNNNN000000000000000         101000000        9NN            
101080608QUANG TRI           HUONG-HOA           HUONG BINH          TROAN THUONG CU     NNNNN000000000000000         101000000        9NN            
101080609QUANG TRI           HUONG-HOA           HUONG BINH          TROAN THUONG MOI    NNNNN000000000000000         101000000        9NN            
101080610QUANG TRI           HUONG-HOA           HUONG BINH          PIEC CO LANG        NNNNN000000000000000         101000000        9NN            
101081800QUANG TRI           HUONG-HOA           HUONG AN                                VNNNN001050000950000000000100101081800                       
101081801QUANG TRI           HUONG-HOA           HUONG AN            TA CUONG            VNNNN001450014500000         101080000XD7304189EN            
101081802QUANG TRI           HUONG-HOA           HUONG AN            LANG CAT            VNNNN001550015500000         101080000XD7304189EN            
101081803QUANG TRI           HUONG-HOA           HUONG AN            CONG XA RE          VNNNN001400014000000         101080000XD7304189EN            
101081804QUANG TRI           HUONG-HOA           HUONG AN            TA DU               VNNNN001150011500000         101080000XD7304189EN            
101081805QUANG TRI           HUONG-HOA           HUONG AN            XOM MOI             VNNNN000850008500000         101080000XD7304189EN            
101081806QUANG TRI           HUONG-HOA           HUONG AN            TUNG TRUOI          VNNNN001800018000000         101080000XD7304189EN            
101081807QUANG TRI           HUONG-HOA           HUONG AN            PA RO               VNNNN000800008000000         101080000XD7304189EN            
101081808QUANG TRI           HUONG-HOA           HUONG AN            LANG RUONG          VNNNN000500005000000         101080000XD7304189EN            
101081900QUANG TRI           HUONG-HOA           HUONG MY                                VNNNN000225000125000000000100101081900                       
101081901QUANG TRI           HUONG-HOA           HUONG MY            CA TUP MOI          VNNNN001250012500000         101080000XD7383809EN            
101081902QUANG TRI           HUONG-HOA           HUONG MY            CA TUP CU           NNNNN000000000000000         101000000        9NN            
101081903QUANG TRI           HUONG-HOA           HUONG MY            MY YEN              NNNNN000000000000000         101000000        9NN            
101081904QUANG TRI           HUONG-HOA           HUONG MY            VAY THUONG HA       NNNNN000000000000000         101000000        9NN            
101081905QUANG TRI           HUONG-HOA           HUONG MY            LEC NIEC            NNNNN000000000000000         101000000        9NN            
101081906QUANG TRI           HUONG-HOA           HUONG MY            BAN PHUONG          NNNNN000000000000000         101000000        9NN            
101082000QUANG TRI           HUONG-HOA           HUONG TRUNG                             VNNNN000355000255000000000100101082000                       
101082001QUANG TRI           HUONG-HOA           HUONG TRUNG         PO RO TUNG          VNNNN001450014500000         101080000XD9204259EN            
101082002QUANG TRI           HUONG-HOA           HUONG TRUNG         VUNG KHO            VNNNN001100011000000         101080000XD9255059EN            
101082003QUANG TRI           HUONG-HOA           HUONG TRUNG         THUONG TRUNG        NNNNN000000000000000         101000000        9NN            
101082004QUANG TRI           HUONG-HOA           HUONG TRUNG         CHAN RO             NNNNN000000000000000         101000000        9NN            
101082005QUANG TRI           HUONG-HOA           HUONG TRUNG         HUC NGHI            NNNNN000000000000000         101000000        9NN            
101082006QUANG TRI           HUONG-HOA           HUONG TRUNG         CA LU               NNNNN000000000000000         101000000        9NN            
101082100QUANG TRI           HUONG-HOA           HUONG VAN                               VNNNN000244000144000000000100101082100                       
101082101QUANG TRI           HUONG-HOA           HUONG VAN           TRUNG THUAN         VNNNN000640006400000         101080000XD8623859EN            
101082102QUANG TRI           HUONG-HOA           HUONG VAN           THUONG VAN          VNNNN000800008000000         101080000XD8603909EN            
101082200QUANG TRI           HUONG-HOA           HUONG PHUC                              VNNNN000977000877000000000100101082200                       
101082201QUANG TRI           HUONG-HOA           HUONG PHUC          LANG CHENG          VNNNN001950019500000         101080000XD8903459EN            
101082202QUANG TRI           HUONG-HOA           HUONG PHUC          HUC VAN             VNNNN001150011500000         101080000XD8903459EN            
101082203QUANG TRI           HUONG-HOA           HUONG PHUC          HUC THUONG          VNNNN000900009000000         101080000XD8903459EN            
101082204QUANG TRI           HUONG-HOA           HUONG PHUC          HUC TA NUC          VNNNN000510005100000         101080000XD8903459EN            
101082205QUANG TRI           HUONG-HOA           HUONG PHUC          BA CA               VNNNN000600006000000         101080000XD8903459EN            
101082206QUANG TRI           HUONG-HOA           HUONG PHUC          XAY HO              VNNNN001100011000000         101080000XD8903459EN            
101082207QUANG TRI           HUONG-HOA           HUONG PHUC          TA RUNG             VNNNN000450004500000         101080000XD8903459EN            
101082208QUANG TRI           HUONG-HOA           HUONG PHUC          LANG CON            VNNNN002000020000000         101080000XD8903459EN            
101082209QUANG TRI           HUONG-HOA           HUONG PHUC          CON TA GU           VNNNN000110001100000         101080000XD8903459EN            
101082210QUANG TRI           HUONG-HOA           HUONG PHUC          CU DONG             NNNNN000000000000000         101000000        9NN            
101082211QUANG TRI           HUONG-HOA           HUONG PHUC          HUC CU PUONG        NNNNN000000000000000         101000000        9NN            
101082300QUANG TRI           HUONG-HOA           HUONG THUAN                             VNNNN000286000186000000000100101082300                       
101082301QUANG TRI           HUONG-HOA           HUONG THUAN         MY YEN THUONG       VNNNN000850008500000         101080000XD7853559EN            
101082302QUANG TRI           HUONG-HOA           HUONG THUAN         VAY CHUOI           VNNNN000610006100000         101080000XD7853559EN            
101082303QUANG TRI           HUONG-HOA           HUONG THUAN         CU DUN              VNNNN000400004000000         101080000XD7853559EN            
101082304QUANG TRI           HUONG-HOA           HUONG THUAN         TRO AI              NNNNN000000000000000         101000000        9NN            
101082305QUANG TRI           HUONG-HOA           HUONG THUAN         PIEC HUC            NNNNN000000000000000         101000000        9NN            
101082306QUANG TRI           HUONG-HOA           HUONG THUAN         PIEC TRANG          NNNNN000000000000000         101000000        9NN            
101082307QUANG TRI           HUONG-HOA           HUONG THUAN         PIEC RA CONG        NNNNN000000000000000         101000000        9NN            
101082308QUANG TRI           HUONG-HOA           HUONG THUAN         CON NUOC            NNNNN000000000000000         101000000        9NN            
101082309QUANG TRI           HUONG-HOA           HUONG THUAN         PIEC PA XA          NNNNN000000000000000         101000000        9NN            
101082310QUANG TRI           HUONG-HOA           HUONG THUAN         LANG THUAN          NNNNN000000000000000         101000000        9NN            
101082311QUANG TRI           HUONG-HOA           HUONG THUAN         XOM ROC             NNNNN000000000000000         101000000        9NN            
101082400QUANG TRI           HUONG-HOA           HUONG VINH                              VNNNN000415000315000000000100101082400                       
101082401QUANG TRI           HUONG-HOA           HUONG VINH          PIEC PO CAANG       VNNNN000450004500000         101080000XD8104719EN            
101082402QUANG TRI           HUONG-HOA           HUONG VINH          XA BA               VNNNN000500005000000         101080000XD8104719EN            
101082403QUANG TRI           HUONG-HOA           HUONG VINH          LAM BUI             VNNNN002200022000000         101080000XD8104719EN            
101082404QUANG TRI           HUONG-HOA           HUONG VINH          COOC                NNNNN000000000000000         101000000        9NN            
101082500QUANG TRI           HUONG-HOA           HUONG LOC                               VNNNN000631000531000000000100101082500                       
101082501QUANG TRI           HUONG-HOA           HUONG LOC           LA MAY              VNNNN000300003000000         101080000XD8282809EN            
101082502QUANG TRI           HUONG-HOA           HUONG LOC           A UP                VNNNN000910009100000         101080000XD8282809EN            
101082503QUANG TRI           HUONG-HOA           HUONG LOC           BA LANG             VNNNN004100041000000         101080000XD8282809EN            
101082504QUANG TRI           HUONG-HOA           HUONG LOC           TO RUI              NNNNN000000000000000         101000000        9NN            
101082505QUANG TRI           HUONG-HOA           HUONG LOC           PIEC YIA            NNNNN000000000000000         101000000        9NN            
101082506QUANG TRI           HUONG-HOA           HUONG LOC           PIEC XOI            NNNNN000000000000000         101000000        9NN            
101082507QUANG TRI           HUONG-HOA           HUONG LOC           XA RIENG CU TY      NNNNN000000000000000         101000000        9NN            
101082508QUANG TRI           HUONG-HOA           HUONG LOC           LANG CUA            NNNNN000000000000000         101000000        9NN            
101082509QUANG TRI           HUONG-HOA           HUONG LOC           CO LY               NNNNN000000000000000         101000000        9NN            
101082600QUANG TRI           HUONG-HOA           HUONG THO                               EENNE000150000050000000000100101082600                       
101082601QUANG TRI           HUONG-HOA           HUONG THO           HO XUM              VNNNN000500005000000         101080000XD7694529EN            
101082602QUANG TRI           HUONG-HOA           HUONG THO           CHENG XA BUI        NNNNN000000000000000         101000000        9NN            
101082603QUANG TRI           HUONG-HOA           HUONG THO           A DOA               NNNNN000000000000000         101000000        9NN            
101082604QUANG TRI           HUONG-HOA           HUONG THO           TRUONG MA LAI       NNNNN000000000000000         101000000        9NN            
101082700QUANG TRI           HUONG-HOA           HUONG CHINH                             EENNE000154000054000000000100101082700                       
101082701QUANG TRI           HUONG-HOA           HUONG CHINH         DO BAN              VNNNN000150001500000         101080000XD9903759EN            
101082702QUANG TRI           HUONG-HOA           HUONG CHINH         TRUONG BO NANG      VNNNN000100001000000         101080000XD9903759EN            
101082703QUANG TRI           HUONG-HOA           HUONG CHINH         TA RET              VNNNN000290002900000         101080000XD9903759EN            
101082800QUANG TRI           HUONG-HOA           HUONG AN (B)                            NNNNN000000000000000000000000101082800                       
101082900QUANG TRI           HUONG-HOA           HUONG MY (B)                            NNNNN000000000000000000000000101082900                       
101083000QUANG TRI           HUONG-HOA           HUONG TRUNG (B)                         NNNNN000000000000000000000000101083000                       
101083100QUANG TRI           HUONG-HOA           HUONG VAN (B)                           NNNNN000000000000000000000000101083100                       
101083200QUANG TRI           HUONG-HOA           HUONG PHUC (B)                          NNNNN000000000000000000000000101083200                       
101083300QUANG TRI           HUONG-HOA           HUONG THUAN (B)                         NNNNN000000000000000000000000101083300                       
101083400QUANG TRI           HUONG-HOA           HUONG VINH (B)                          NNNNN000000000000000000000000101083400                       
101083500QUANG TRI           HUONG-HOA           HUONG LOC (B)                           NNNNN000000000000000000000000101083500                       
101083600QUANG TRI           HUONG-HOA           HUONG THO (B)                           NNNNN000000000000000000000000101083600                       
101083700QUANG TRI           HUONG-HOA           HUONG CHINH (B)                         NNNNN000000000000000000000000101083700                       
101090100QUANG TRI           DONG HA             DONG LE                                 VNENN000280000280000000000000101090103                       
101090101QUANG TRI           DONG HA             DONG LE             LANG PHUOC          VNENN000150001500000         101090000YD2656199EN            
101090102QUANG TRI           DONG HA             DONG LE             DIEU NGAO           VNENN000700007000000         101090000YD2476129EN            
101090103QUANG TRI           DONG HA             DONG LE             PHU LE              VNENN000200002000000         101090000YD2666149EN            
101090104QUANG TRI           DONG HA             DONG LE             VAN NGA BA          VNENN000300003000000         101090000YD2666149EN            
101090105QUANG TRI           DONG HA             DONG LE             LAP THACH           VNENN001200012000000         101090000YD2766079EN            
101090106QUANG TRI           DONG HA             DONG LE             VAN AN              VNENN000250002500000         101090000YD2736079EN            
101090200QUANG TRI           DONG HA             DONG LUONG                              VNENN000285000285000000000000101090206                       
101090201QUANG TRI           DONG HA             DONG LUONG          VINH PHUOC          VNENN000950009500000         101090000YD2855859EN            
101090202QUANG TRI           DONG HA             DONG LUONG          DAI ANG             VNENN000550005500000         101090000YD2855969EN            
101090203QUANG TRI           DONG HA             DONG LUONG          TRUNG CHI           VNENN000750007500000         101090000YD2655909EN            
101090204QUANG TRI           DONG HA             DONG LUONG          PHUONG GIA          VNENN000150001500000         101090000YD2556009EN            
101090205QUANG TRI           DONG HA             DONG LUONG          LUONG AN            VNENN000100001000000         101090000YD2546059EN            
101090206QUANG TRI           DONG HA             DONG LUONG          DAI AN              VNENN000350003500000         101090000YD2405909EN            
101090300QUANG TRI           DONG HA             DONG HOA                                VNNNN000315000315000000000000101090300                       
101090301QUANG TRI           DONG HA             DONG HOA            PHU NGAN            VNNNN000150001500000         101090000YD1956259EN            
101090302QUANG TRI           DONG HA             DONG HOA            MY HOA              VNNNN000850008500000         101090000YD2106549EN            
101090303QUANG TRI           DONG HA             DONG HOA            THIEN CHANH         VEEEE000150001500000         101090000YD1656410EN            
101090304QUANG TRI           DONG HA             DONG HOA            CAM VU              VNNNN000400004000000         101090000YD1856159EN            
101090305QUANG TRI           DONG HA             DONG HOA            AN BINH             VNNNN000700007000000         101090000YD2156269EN            
101090306QUANG TRI           DONG HA             DONG HOA            NHAT LE             VNNNN000450004500000         101090000YD1956129EN            
101090307QUANG TRI           DONG HA             DONG HOA            THO XUAN            VEEEE000150001500000         101090000YD1616380EN            
101090308QUANG TRI           DONG HA             DONG HOA            CAM LO HA           VNNNN000300003000000         101090000YD2186229EN            
101090400QUANG TRI           DONG HA             DONG PHONG                              VNNNN000198000198000000000000101090407                       
101090401QUANG TRI           DONG HA             DONG PHONG          THUONG NGHIA        VNNNN000850008500000         101090000YD2416269EN            
101090402QUANG TRI           DONG HA             DONG PHONG          PHI THUA            VNNNN000150001500000         101090000YD2406379EN            
101090403QUANG TRI           DONG HA             DONG PHONG          THUONG DO           VNNNN000150001500000         101090000YD2466359EN            
101090404QUANG TRI           DONG HA             DONG PHONG          DINH TO             VNNNN000100001000000         101090000YD2506309EN            
101090405QUANG TRI           DONG HA             DONG PHONG          DAI DO              VNNNN000450004500000         101090000YD2546289EN            
101090406QUANG TRI           DONG HA             DONG PHONG          DONG LAI            VNNNN000150001500000         101090000YD2476279EN            
101090407QUANG TRI           DONG HA             DONG PHONG          AN LAC              VNNNN000130001300000         101090000YD2436139EN            
101090500QUANG TRI           DONG HA             DONG THANH                              VNNNN000265000265000000000000101090500                       
101090501QUANG TRI           DONG HA             DONG THANH          NGHIA AN DONG       VNNNN000150001500000         101090000YD2346169EN            
101090502QUANG TRI           DONG HA             DONG THANH          NGHIA AN TRUNG      VNNNN001200012000000         101090000YD2266159EN            
101090503QUANG TRI           DONG HA             DONG THANH          NGHIA AN TAY        VNNNN000650006500000         101090000YD2076039EN            
101090504QUANG TRI           DONG HA             DONG THANH          THANH LUONG         VNNNN000250002500000         101090000YD2146079EN            
101090505QUANG TRI           DONG HA             DONG THANH          DONG HA             VNNNN000400004000000         101090000YD2266139EN            
101090600QUANG TRI           DONG HA             DONG XUAN                               VNNNN000180000180000000000000101090603                       
101090601QUANG TRI           DONG HA             DONG XUAN           PHO LAI PHUONG      VNNNN000100001000000         101090000YD2336309EN            
101090602QUANG TRI           DONG HA             DONG XUAN           CAM THACH           VNNNN000100001000000         101090000YD2346379EN            
101090603QUANG TRI           DONG HA             DONG XUAN           KIM DAU             VNNNN000650006500000         101090000YD2336359EN            
